S00E000042555A5A45522E7372656334
S113000045C0000060C000005EC000005CC000008D
S11300105AC0000058C0000056C0000054C0000080
S113002052C0000050C000004EC000004CC0000090
S11300304AC0000048C0000046C0000045C000009F
S113004042C0000040C000003EC000003CC00000B0
S11300503AC0000038C0000036C0000034C00000C0
S113006032C0000030C000002EC000002CC00000D0
S11300702AC0000028C0000026C0000024C00000E0
S113008022C0000020C000001EC0000011241FBEBA
S1130090CFEFD0E1DEBFCDBF11E0A0E0B1E0E4E9F5
S11300A0F1E000E00BBF02C007900D92A232B1074D
S11300B0D9F721E0A2E2B1E001C01D92A432B20757
S11300C0E1F743D065C09CCF1F920F920FB60F92F9
S11300D011240BB60F928F93EF93FF93E0912301BA
S11300E0F0E0E65EFE4F808181BF809122018111A4
S11300F007C088B3806188BB81E08093220105C07A
S113010088B38F7E88BB10922201FF91EF918F916B
S11301100F900BBE0F900FBE0F901F9018958FEF8E
S11301208ABB80E187BB089513BE83B7886083BF11
S113013083B7806183BF83B7846083BF17BE87B7EB
S1130140826087BF12BE78940895E9DFEDDF80E016
S113015090E0F894AC014F5F5F4FFC01E050FF4F1B
S11301608081809323017894809123018BBB2FEFAE
S113017085EA9EE0215080409040E1F700C00000F5
S113018020912301CA012F3F21F780E090E00895D8
S1070190F894FFCF0D
S11301940402020402000102010002040704070429
S11301A4070402040103020100FFEED4BDB29E8DD4
S10501B47E7651
S9030000FC
