:1000000045C000004BC0000049C0000047C00000D0
:1000100045C0000043C0000041C000003FC00000D8
:100020003DC000003BC0000039C0000037C00000E8
:1000300035C0000033C0000031C000002FC00000F8
:100040002DC000002BC0000029C0000027C0000008
:1000500025C0000023C0000021C000001FC0000018
:100060001DC000001BC0000019C0000017C0000028
:1000700015C0000013C0000011C000000FC0000038
:100080000DC000000BC0000009C0000011241FBEFD
:10009000CFEFD0E1DEBFCDBF5ED0A8C0B1CF87B17A
:1000A000806487B987B1836087B986B1876086B974
:1000B00086B1806886B986B1806286B986B180646F
:1000C00086B90895349BFECF84B195B10895EBE9CC
:1000D000F0E0808182608083109298008FEC8093A2
:1000E0009900EDE9F0E0808186608083EAE9F0E044
:1000F0008081886180830895BC0120E030E008C0E1
:1001000090919B0095FFFCCF40939C002F5F3F4F49
:10011000FB01E20FF31F40814111F2CF0895CF930D
:10012000DF93CDB7DEB761970FB6F894DEBF0FBE91
:10013000CDBF4AE050E0BE016F5F7F4F1AD0CE01C5
:100140000196DADF61960FB6F894DEBF0FBECDBF21
:10015000DF91CF910895A3DFBADFB4DFE0DF2FEFA7
:1001600083ED90E3215080409040E1F700C0000013
:10017000F4CF4532510518F4423008F004C0FB01B9
:100180001082CB010895BB274A3031F4992322F421
:10019000BDE2909581959F4F01C0BB27FB0155277C
:1001A000AA27880F991FAA1FA41710F0A41B8395D4
:1001B0005051B9F7A05DAA3308F0A95DA19300974B
:1001C00079F7B111B1931192CB0100C0DC01FC01B0
:1001D000672F71917723E1F7329704C07C916D937B
:1001E00070836291AE17BF07C8F30895F894FFCFEC
:00000001FF
