:1000000045C000004FC10000C2C10000FBC100009C
:1000100034C200006DC20000A6C20000DFC20000B2
:1000200018C3000050C000004EC000004CC00000CB
:100030004AC0000048C0000046C0000044C00000A4
:1000400042C0000040C000003EC000003CC00000B4
:100050003AC0000038C0000036C0000034C00000C4
:1000600032C0000030C000002EC000002CC00000D4
:100070002AC0000028C0000026C0000024C00000E4
:1000800022C0000020C000001EC0000011241FBEBE
:10009000CFEFD0E1DEBFCDBF11E0A0E0B1E0E4E002
:1000A000F0E100E00BBF02C007900D92A634B1074B
:1000B000D9F721E0A6E4B1E001C01D92AD34B2074A
:1000C000E1F702D39DC79CCF82B1886082B9EBE88B
:1000D000F0E0808180648083EAE8F0E080818960DC
:1000E00080830895CF93DF93EC011FC022962115E2
:1000F000310529F410928700109286000DC0032E5E
:10010000000C440B550B60E072E18AE790E0EBD302
:1001100030938700209386002FEF89E698E12150E5
:1001200080409040E1F700C000002881398121150E
:100130003105E1F61092870010928600DF91CF9191
:1001400008951ABA85B38E7F85BB85B3826085BB5F
:1001500085B3846085BB85E08A95F1F7000089B39B
:1001600095E09A95F1F7000095B39B7F95BB9FEFC3
:100170009ABB95E09A95F1F700000895882314F44E
:1001800081E0089580E0089595B39E7F95BB95B377
:100190009D7F95BB95B3946095BB8BBB85E08A959D
:1001A000F1F7000085B38B7F85BB85E08A95F1F779
:1001B00000000895CF93C82F04C085E08A95F1F719
:1001C0000000BFDFDBDF8111F8CF85B38E7F85BBF9
:1001D00085B38D7F85BB85B3846085BBCBBB85E054
:1001E0008A95F1F7000085B38B7F85BB85E08A9502
:1001F000F1F70000CF9108952FEF81EE94E02150A8
:1002000080409040E1F700C0000088E3BDDF8FE34D
:100210009CE90197F1F700C0000088E3B5DF8FE1AA
:1002200093E00197F1F700C0000088E3ADDF8FE1B4
:1002300093E00197F1F700C0000088E3BBDF8CE09A
:10024000B9DF81E0B7CF0895CF93C82F04C085E010
:100250008A95F1F7000075DF91DF8111F8CF85B342
:10026000816085BB85B38D7F85BB85B3846085BB8D
:10027000CBBB85E08A95F1F7000085B38B7F85BB0A
:1002800085E08A95F1F70000CF910895CF93DF9331
:10029000EC0102C02196D8DF88818111FBCFDF916C
:1002A000CF9108951F920F920FB60F9211240BB6A3
:1002B0000F922F933F934F935F936F937F938F93FF
:1002C0009F93AF93BF93EF93FF934091460150915B
:1002D0004701209148013091490191E0452B09F0F7
:1002E00090E081E0232B09F080E0892391F081E008
:1002F00090E090934701809346018EE391E0F2DE17
:100300002FEF83ED90E3215080409040E1F700C053
:10031000000086B3813041F518BA80914A0190916E
:100320004B01019690934B0180934A018091040107
:1003300090910501019749F42FEF89E698E121504A
:1003400080409040E1F700C000008091040190914E
:100350000501029749F42FEF83EC99E0215080408A
:100360009040E1F700C00000FF91EF91BF91AF9185
:100370009F918F917F916F915F914F913F912F91BD
:100380000F900BBE0F900FBE0F901F9018951F92ED
:100390000F920FB60F9211242F938F939F9386B3D2
:1003A000823041F518BA80914A0190914B01019633
:1003B00090934B0180934A01809104019091050133
:1003C000019749F42FEF89E698E121508040904051
:1003D000E1F700C0000080910401909105010297AF
:1003E00049F42FEF83EC99E0215080409040E1F7F1
:1003F00000C000009F918F912F910F900FBE0F9022
:100400001F9018951F920F920FB60F9211242F93E1
:100410008F939F9386B3843041F518BA80914A0137
:1004200090914B01019690934B0180934A018091EA
:10043000040190910501019749F42FEF89E698E1B5
:10044000215080409040E1F700C0000080910401FD
:1004500090910501029749F42FEF83EC99E0215028
:1004600080409040E1F700C000009F918F912F9154
:100470000F900FBE0F901F9018951F920F920FB6FE
:100480000F9211242F938F939F9386B3883041F559
:1004900018BA80914A0190914B01019690934B01BB
:1004A00080934A018091040190910501019749F4DC
:1004B0002FEF89E698E1215080409040E1F700C09D
:1004C00000008091040190910501029749F42FEFFB
:1004D00083EC99E0215080409040E1F700C000009B
:1004E0009F918F912F910F900FBE0F901F90189595
:1004F0001F920F920FB60F9211242F938F939F93F9
:1005000086B3803141F518BA80914A0190914B0130
:10051000019690934B0180934A0180910401909140
:100520000501019749F42FEF89E698E121508040B9
:100530009040E1F700C00000809104019091050116
:10054000029749F42FEF83EC99E0215080409040CE
:10055000E1F700C000009F918F912F910F900FBE87
:100560000F901F9018951F920F920FB60F921124A3
:100570002F938F939F9386B3803241F518BA809161
:100580004A0190914B01019690934B0180934A014F
:100590008091040190910501019749F42FEF89E6BC
:1005A00098E1215080409040E1F700C00000809128
:1005B000040190910501029749F42FEF83EC99E033
:1005C000215080409040E1F700C000009F918F9142
:1005D0002F910F900FBE0F901F9018951F920F92A2
:1005E0000FB60F9211242F938F939F9386B380346D
:1005F00041F518BA80914A0190914B010196909370
:100600004B0180934A01809104019091050101976B
:1006100049F42FEF89E698E1215080409040E1F7BE
:1006200000C000008091040190910501029749F4F7
:100630002FEF83EC99E0215080409040E1F700C01B
:1006400000009F918F912F910F900FBE0F901F90E0
:1006500018951F920F920FB60F9211242F938F931C
:100660009F9386B3803841F518BA80914A019091E2
:100670004B01019690934B0180934A0180910401B4
:1006800090910501019749F42FEF89E698E12150F7
:1006900080409040E1F700C00000809104019091FB
:1006A0000501029749F42FEF83EC99E02150804037
:1006B0009040E1F700C000009F918F912F910F9023
:1006C0000FBE0F901F9018950F931F93CF93DF933A
:1006D000CDB7DEB764970FB6F894DEBF0FBECDBFBF
:1006E0008FEF87BBF89480936A008ABF89BF7894A4
:1006F0008ABB84BB1A82198288E0FE013396DF012F
:10070000282F1D922A95E9F71C861B863A96DF0151
:100710001D928A95E9F770DDD7DC809146019091B2
:1007200047010197D1F780E845DD80910401909160
:1007300005019F938F9386E091E09F938F938E01A5
:100740000F5F1F4F1F930F9361D1C8019FDD8091F1
:100750004801909149010196909349018093480185
:1007600047D1877090780F900F900F900F900F9057
:100770000F90992324F40197886F9F6F01968093BF
:100780004C01209104013091050121303105E1F443
:1007900021E030E0A90102C0440F551F8A95E2F71D
:1007A00048BB5FEF89E698E1515080409040E1F707
:1007B00000C0000018BAAFEFB9E628E1A150B04080
:1007C0002040E1F700C000008091040190910501F4
:1007D0000297E9F481E090E000904C0102C0880F9C
:1007E000991F0A94E2F788BB4FEF55EA8EE041501B
:1007F00050408040E1F700C0000018BA9FEFA5EA22
:10080000BEE09150A040B040E1F700C00000409130
:100810004A0150914B01209104013091050191E072
:100820004530510509F090E081E02130310509F0B3
:1008300080E08923F1F086E291E054DC2FEF4BE475
:100840005DE1215040405040E1F700C000008AE1E6
:1008500091E048DC8FEF9BE4ADE181509040A040F7
:10086000E1F700C0000082E090E0909305018093E2
:1008700004018091480190914901449709F04DCFBE
:1008800086E391E02FDCBFEF23ED40E3B150204041
:100890004040E1F700C0000080EC8CDC80914A0110
:1008A00090914B019F938F9380E191E09F938F9361
:1008B0008E01055F1F4F1F930F93A8D0C801E6DC80
:1008C0000F900F900F900F900F900F9080E090E09E
:1008D00064960FB6F894DEBF0FBECDBFDF91CF9107
:1008E0001F910F910895052E97FB16F400940FD0D9
:1008F00057FD05D014D007FC02D046F408C050952F
:100900004095309521953F4F4F4F5F4F08959095FB
:100910008095709561957F4F8F4F9F4F0895A1E20D
:100920001A2EAA1BBB1BFD010DC0AA1FBB1FEE1F69
:10093000FF1FA217B307E407F50720F0A21BB30BB4
:10094000E40BF50B661F771F881F991F1A9469F730
:1009500060957095809590959B01AC01BD01CF018C
:1009600008958F929F92AF92BF92CF92DF92EF92B3
:10097000FF92CF93DF93EC01688179818A819B811B
:10098000611571058105910521F464E279ED8BE52E
:1009900097E02DE133EF41E050E0A5DF49015A0136
:1009A0009B01AC01A7EAB1E40CD36B017C01ACEE76
:1009B000B4EFA501940111D3DC01CB018C0D9D1D79
:1009C000AE1DBF1DB7FF03C00197A109B0488883C2
:1009D0009983AA83BB839F77DF91CF91FF90EF909C
:1009E000DF90CF90BF90AF909F908F900895B9CF38
:1009F00080E091E0B6CFA0E0B0E08093000190935A
:100A00000101A0930201B093030108950F931F9376
:100A1000CF93DF93CDB7DEB72E970FB6F894DEBF36
:100A20000FBECDBF0D891E8986E08C831A83098392
:100A30008FEF9FE79E838D83AE01475E5F4F6F8987
:100A4000788DCE01019610D0EF81F885E00FF11F6F
:100A500010822E960FB6F894DEBF0FBECDBFDF9189
:100A6000CF911F910F9108952F923F924F925F92D5
:100A70006F927F928F929F92AF92BF92CF92DF92AE
:100A8000EF92FF920F931F93CF93DF93CDB7DEB713
:100A90002B970FB6F894DEBF0FBECDBF6C017B0164
:100AA0008A01FC0117821682838181FFBFC1CE01BA
:100AB00001963C01F6019381F70193FD859193FF27
:100AC00081917F01882309F4ADC1853239F493FD0A
:100AD000859193FF81917F01853221F4B60190E0E9
:100AE000D6D1E8CF912C212C312CFFE1F315D8F091
:100AF0008B3279F038F4803279F08332A1F4232DEF
:100B000020611DC08D3261F0803369F4232D216096
:100B100016C0832D8260382EE32DE4603E2E2AC05D
:100B2000F32DF8601DC037FC2DC020ED280F2A30B2
:100B300040F08E32B9F436FC75C1232D2064322E7C
:100B400019C036FE06C08AE0989E200D1124922E10
:100B500011C0EAE02E9E200D1124222EF32DF0620A
:100B60003F2E08C08C3621F4832D8068382E02C0B9
:100B7000883641F4F70193FD859193FF81917F01C0
:100B80008111B3CF982F9F7D9554933028F40C5F3B
:100B90001F4F9FE399830DC0833631F0833771F087
:100BA000833509F055C020C0F801808189830E5F2C
:100BB0001F4F88248394912C530112C02801F2E026
:100BC0004F0E511CF801A080B18036FE03C0692D84
:100BD00070E002C06FEF7FEFC5014ED14C01820182
:100BE000F32DFF773F2E15C0280122E0420E511C45
:100BF000F801A080B18036FE03C0692D70E002C00C
:100C00006FEF7FEFC5012DD14C01F32DF0683F2E22
:100C1000820133FC19C0822D90E088169906A0F459
:100C2000B60180E290E033D12A94F5CFF50137FC8C
:100C3000859137FE81915F01B60190E028D12110A6
:100C40002A9421E0821A91088114910479F7E1C075
:100C5000843611F0893639F5F80137FE07C0608116
:100C60007181828193810C5F1F4F08C06081718107
:100C7000072E000C880B990B0E5F1F4FF32DFF768C
:100C80003F2E97FF09C090958095709561957F4F95
:100C90008F4F9F4FF0683F2E2AE030E0A30133D101
:100CA000882E861844C0853731F4232D2F7EB22E2E
:100CB0002AE030E025C0932D997FB92E8F36C1F000
:100CC00018F4883579F0AEC0803719F0883721F0F4
:100CD000A9C0E92FE061BE2EB4FE0DC0FB2DF4606B
:100CE000BF2E09C034FE0AC0292F2660B22E06C0CE
:100CF00028E030E005C020E130E002C020E132E031
:100D0000F801B7FE07C060817181828193810C5F19
:100D10001F4F06C06081718180E090E00E5F1F4F21
:100D2000A301F1D0882E8618FB2DFF773F2E36FECB
:100D30000DC0232D2E7FA22E891458F434FE0BC033
:100D400032FC09C0832D8E7EA82E05C0B82CA32CA2
:100D500003C0B82C01C0B92CA4FE0FC0FE01E80DE1
:100D6000F11D8081803321F49A2D997EA92E09C02E
:100D7000A2FE06C0B394B39404C08A2D867809F00D
:100D8000B394A3FC10C0A0FE06C0B21480F4280CDB
:100D9000922C9B180DC0B21458F4B60180E290E07A
:100DA00076D0B394F8CFB21418F42B1802C0982C54
:100DB000212CA4FE0FC0B60180E390E068D0A2FE13
:100DC00016C0A1FC03C088E790E002C088E590E06F
:100DD000B6010CC08A2D867851F0A1FE02C08BE2CC
:100DE00001C080E2A7FC8DE2B60190E050D08914EA
:100DF00030F4B60180E390E04AD09A94F8CF8A9418
:100E0000F301E80DF11D8081B60190E040D0811022
:100E1000F6CF222009F44ECEB60180E290E037D022
:100E20002A94F7CFF6018681978102C08FEF9FEF5A
:100E30002B960FB6F894DEBF0FBECDBFDF91CF91DA
:100E40001F910F91FF90EF90DF90CF90BF90AF90E8
:100E50009F908F907F906F905F904F903F902F90DA
:100E60000895FC010590615070400110D8F78095FD
:100E700090958E0F9F1F0895FC0161507040019066
:100E80000110D8F7809590958E0F9F1F08950F93AE
:100E90001F93CF93DF93FB01238121FD03C08FEFCD
:100EA0009FEF2CC022FF16C04681578124813581D7
:100EB0004217530744F4A081B1819D012F5F3F4F3A
:100EC000318320838C93268137812F5F3F4F378377
:100ED000268314C08B01EC01FB010084F185E02D19
:100EE0000995892BE1F6D80116968D919C9117975B
:100EF000019617969C938E931697CE01DF91CF9112
:100F00001F910F910895FA01AA27283051F120313D
:100F100081F1E8946F936E7F6E5F7F4F8F4F9F4F8D
:100F2000AF4FB1E03ED0B4E03CD0670F781F891FCF
:100F30009A1FA11D680F791F8A1F911DA11D6A0F9D
:100F4000711D811D911DA11D20D009F468943F9150
:100F50002AE0269F11243019305D3193DEF6CF014F
:100F60000895462F4770405D4193B3E00FD0C9F715
:100F7000F6CF462F4F70405D4A3318F0495D31FD82
:100F80004052419302D0A9F7EACFB4E0A6959795D5
:100F9000879577956795BA95C9F7009761057105AB
:100FA00008959B01AC010A2E0694579547953795F5
:100FB0002795BA95C9F7620F731F841F951FA01D4F
:100FC00008950FD0A59F900DB49F900DA49F800D04
:100FD000911D11240895B7FFF4CFF3DF821B930B0B
:100FE0000895A29FB001B39FC001A39F700D811D02
:100FF0001124911DB29F700D811D1124911D089522
:04100000F894FFCF92
:101004000100000001004C6576656C3A20256400FF
:1010140073636F72653A2025640088014A012601D2
:101024004A010601000088018801B801B80188015D
:1010340088014A01000088014A01060100000601F6
:061044004A0188010000D2
:00000001FF
