:1000000045C0000089C00000E0C0000019C1000028
:1000100052C100008BC10000C4C10000FDC100003E
:1000200036C2000050C000004EC000004CC00000AE
:100030004AC0000048C0000046C0000044C00000A4
:1000400042C0000040C000003EC000003CC00000B4
:100050003AC0000038C0000036C0000034C00000C4
:1000600032C0000030C000002EC000002CC00000D4
:100070002AC0000028C0000026C0000024C00000E4
:1000800022C0000020C000001EC0000011241FBEBE
:10009000CFEFD0E1DEBFCDBF11E0A0E0B1E0E0E105
:1000A000FEE000E00BBF02C007900D92A233B10743
:1000B000D9F721E0A2E3B1E001C01D92A933B20754
:1000C000E1F720D2A3C69CCFEBE9F0E0808182600B
:1000D0008083109298008FEC80939900EDE9F0E016
:1000E000808186608083EAE9F0E080818861808396
:1000F0000895BC0120E030E008C090919B0095FF7E
:10010000FCCF40939C002F5F3F4FFB01E20FF31F9A
:1001100040814111F2CF08951F920F920FB60F92B6
:1001200011242F933F934F935F938F939F9340910D
:10013000320150913301209134013091350191E029
:10014000452B09F090E081E0232B09F080E0892322
:1001500031F081E090E0909333018093320186B3D7
:10016000813041F518BA809136019091370101969E
:10017000909337018093360180910401909105019D
:10018000019749F42FEF89E698E121508040904093
:10019000E1F700C0000080910401909105010297F1
:1001A00049F42FEF83EC99E0215080409040E1F733
:1001B00000C000009F918F915F914F913F912F91CF
:1001C0000F900FBE0F901F9018951F920F920FB6B1
:1001D0000F9211242F938F939F9386B3823041F512
:1001E00018BA8091360190913701019690933701AA
:1001F000809336018091040190910501019749F4A3
:100200002FEF89E698E1215080409040E1F700C04F
:1002100000008091040190910501029749F42FEFAD
:1002200083EC99E0215080409040E1F700C000004D
:100230009F918F912F910F900FBE0F901F90189547
:100240001F920F920FB60F9211242F938F939F93AB
:1002500086B3843041F518BA809136019091370108
:10026000019690933701809336018091040190911B
:100270000501019749F42FEF89E698E1215080406C
:100280009040E1F700C000008091040190910501C9
:10029000029749F42FEF83EC99E021508040904081
:1002A000E1F700C000009F918F912F910F900FBE3A
:1002B0000F901F9018951F920F920FB60F92112456
:1002C0002F938F939F9386B3883041F518BA80910E
:1002D0003601909137010196909337018093360152
:1002E0008091040190910501019749F42FEF89E66F
:1002F00098E1215080409040E1F700C000008091DB
:10030000040190910501029749F42FEF83EC99E0E5
:10031000215080409040E1F700C000009F918F91F4
:100320002F910F900FBE0F901F9018951F920F9254
:100330000FB60F9211242F938F939F9386B3803122
:1003400041F518BA8091360190913701019690934A
:100350003701809336018091040190910501019746
:1003600049F42FEF89E698E1215080409040E1F771
:1003700000C000008091040190910501029749F4AA
:100380002FEF83EC99E0215080409040E1F700C0CE
:1003900000009F918F912F910F900FBE0F901F9093
:1003A00018951F920F920FB60F9211242F938F93CF
:1003B0009F9386B3803241F518BA809136019091AF
:1003C00037010196909337018093360180910401A3
:1003D00090910501019749F42FEF89E698E12150AA
:1003E00080409040E1F700C00000809104019091AE
:1003F0000501029749F42FEF83EC99E021508040EA
:100400009040E1F700C000009F918F912F910F90D5
:100410000FBE0F901F9018951F920F920FB60F925C
:1004200011242F938F939F9386B3803441F518BA8C
:100430008091360190913701019690933701809316
:1004400036018091040190910501019749F42FEF45
:1004500089E698E1215080409040E1F700C000001B
:100460008091040190910501029749F42FEF83ECEC
:1004700099E0215080409040E1F700C000009F913A
:100480008F912F910F900FBE0F901F9018951F9274
:100490000F920FB60F9211242F938F939F9386B3D1
:1004A000803841F518BA8091360190913701019654
:1004B000909337018093360180910401909105015A
:1004C000019749F42FEF89E698E121508040904050
:1004D000E1F700C0000080910401909105010297AE
:1004E00049F42FEF83EC99E0215080409040E1F7F0
:1004F00000C000009F918F912F910F900FBE0F9021
:100500001F9018950F931F93CF93DF93CDB7DEB74E
:100510006E970FB6F894DEBF0FBECDBF8FEF87BBCF
:10052000F89480936A008ABF89BF78941A821982EE
:1005300088E0FE013396DF01282F1D922A95E9F706
:100540001C861B863A96DF01282F1D922A95E9F713
:100550001E8A1D8A3A96DF011D928A95E9F7B4DD5D
:1005600080913201909133010197D1F7809134014C
:10057000909135014E9709F4ACC08091340190916F
:1005800035010196909335018093340180913401B7
:10059000909135019F938F9386E091E09F938F9385
:1005A0008E010F5F1F4F1F930F93F8D0C801A1DD7D
:1005B000E7D0877090780F900F900F900F900F906A
:1005C0000F90992324F40197886F9F6F0196809371
:1005D00038011F928F938FE091E09F938F938E014C
:1005E0000B5E1F4F1F930F93D9D0C80182DD8091FE
:1005F0000401909105010F900F900F900F900F90B4
:100600000F900197E9F481E090E00090380102C07A
:10061000880F991F0A94E2F788BBBFEF29E688E1AB
:10062000B15020408040E1F700C0000018BA9FEFB1
:10063000A9E6B8E19150A040B040E1F700C0000049
:1006400080910401909105010297E9F481E090E026
:100650000090380102C0880F991F0A94E2F788BB06
:100660002FEF85EA9EE0215080409040E1F700C0E6
:10067000000018BAAFEFB5EA2EE0A150B04020401C
:10068000E1F700C0000080913601909137019F93FF
:100690008F9388E191E09F938F938E01055F1F4FA9
:1006A0001F930F937BD0C80124DD80913601909178
:1006B00037010F900F900F900F900F900F900597AC
:1006C00009F04ECF82E090E0909305018093040101
:1006D00047CF84E291E00DDD80E090E06E960FB6AA
:1006E000F894DEBF0FBECDBFDF91CF911F910F9168
:1006F00008958F929F92AF92BF92CF92DF92EF9226
:10070000FF92CF93DF93EC01688179818A819B818D
:10071000611571058105910521F464E279ED8BE5A0
:1007200097E02DE133EF41E050E013D349015A0146
:100730009B01AC01A7EAB1E428D36B017C01ACEECC
:10074000B4EFA50194012DD3DC01CB018C0D9D1DCF
:10075000AE1DBF1DB7FF03C00197A109B048888334
:100760009983AA83BB839F77DF91CF91FF90EF900E
:10077000DF90CF90BF90AF909F908F900895B9CFAA
:1007800080E091E0B6CFA0E0B0E0809300019093CC
:100790000101A0930201B093030108950F931F93E9
:1007A000CF93DF93CDB7DEB72E970FB6F894DEBFA9
:1007B0000FBECDBF0D891E8986E08C831A83098305
:1007C0008FEF9FE79E838D83AE01475E5F4F6F89FA
:1007D000788DCE01019610D0EF81F885E00FF11FE2
:1007E00010822E960FB6F894DEBF0FBECDBFDF91FC
:1007F000CF911F910F9108952F923F924F925F9248
:100800006F927F928F929F92AF92BF92CF92DF9220
:10081000EF92FF920F931F93CF93DF93CDB7DEB785
:100820002B970FB6F894DEBF0FBECDBF6C017B01D6
:100830008A01FC0117821682838181FFBFC1CE012C
:1008400001963C01F6019381F70193FD859193FF99
:1008500081917F01882309F4ADC1853239F493FD7C
:10086000859193FF81917F01853221F4B60190E05B
:10087000D6D1E8CF912C212C312CFFE1F315D8F003
:100880008B3279F038F4803279F08332A1F4232D61
:1008900020611DC08D3261F0803369F4232D216009
:1008A00016C0832D8260382EE32DE4603E2E2AC0D0
:1008B000F32DF8601DC037FC2DC020ED280F2A3025
:1008C00040F08E32B9F436FC75C1232D2064322EEF
:1008D00019C036FE06C08AE0989E200D1124922E83
:1008E00011C0EAE02E9E200D1124222EF32DF0627D
:1008F0003F2E08C08C3621F4832D8068382E02C02C
:10090000883641F4F70193FD859193FF81917F0132
:100910008111B3CF982F9F7D9554933028F40C5FAD
:100920001F4F9FE399830DC0833631F0833771F0F9
:10093000833509F055C020C0F801808189830E5F9E
:100940001F4F88248394912C530112C02801F2E098
:100950004F0E511CF801A080B18036FE03C0692DF6
:1009600070E002C06FEF7FEFC5014ED14C018201F4
:10097000F32DFF773F2E15C0280122E0420E511CB7
:10098000F801A080B18036FE03C0692D70E002C07E
:100990006FEF7FEFC5012DD14C01F32DF0683F2E95
:1009A000820133FC19C0822D90E088169906A0F4CC
:1009B000B60180E290E033D12A94F5CFF50137FCFF
:1009C000859137FE81915F01B60190E028D1211019
:1009D0002A9421E0821A91088114910479F7E1C0E8
:1009E000843611F0893639F5F80137FE07C0608189
:1009F0007181828193810C5F1F4F08C0608171817A
:100A0000072E000C880B990B0E5F1F4FF32DFF76FE
:100A10003F2E97FF09C090958095709561957F4F07
:100A20008F4F9F4FF0683F2E2AE030E0A30133D173
:100A3000882E861844C0853731F4232D2F7EB22EA0
:100A40002AE030E025C0932D997FB92E8F36C1F072
:100A500018F4883579F0AEC0803719F0883721F066
:100A6000A9C0E92FE061BE2EB4FE0DC0FB2DF460DD
:100A7000BF2E09C034FE0AC0292F2660B22E06C040
:100A800028E030E005C020E130E002C020E132E0A3
:100A9000F801B7FE07C060817181828193810C5F8C
:100AA0001F4F06C06081718180E090E00E5F1F4F94
:100AB000A301F1D0882E8618FB2DFF773F2E36FE3E
:100AC0000DC0232D2E7FA22E891458F434FE0BC0A6
:100AD00032FC09C0832D8E7EA82E05C0B82CA32C15
:100AE00003C0B82C01C0B92CA4FE0FC0FE01E80D54
:100AF000F11D8081803321F49A2D997EA92E09C0A1
:100B0000A2FE06C0B394B39404C08A2D867809F07F
:100B1000B394A3FC10C0A0FE06C0B21480F4280C4D
:100B2000922C9B180DC0B21458F4B60180E290E0EC
:100B300076D0B394F8CFB21418F42B1802C0982CC6
:100B4000212CA4FE0FC0B60180E390E068D0A2FE85
:100B500016C0A1FC03C088E790E002C088E590E0E1
:100B6000B6010CC08A2D867851F0A1FE02C08BE23E
:100B700001C080E2A7FC8DE2B60190E050D089145C
:100B800030F4B60180E390E04AD09A94F8CF8A948A
:100B9000F301E80DF11D8081B60190E040D0811095
:100BA000F6CF222009F44ECEB60180E290E037D095
:100BB0002A94F7CFF6018681978102C08FEF9FEFCD
:100BC0002B960FB6F894DEBF0FBECDBFDF91CF914D
:100BD0001F910F91FF90EF90DF90CF90BF90AF905B
:100BE0009F908F907F906F905F904F903F902F904D
:100BF0000895FC010590615070400110D8F7809570
:100C000090958E0F9F1F0895FC01615070400190D8
:100C10000110D8F7809590958E0F9F1F08950F9320
:100C20001F93CF93DF93FB01238121FD03C08FEF3F
:100C30009FEF2CC022FF16C0468157812481358149
:100C40004217530744F4A081B1819D012F5F3F4FAC
:100C5000318320838C93268137812F5F3F4F3783E9
:100C6000268314C08B01EC01FB010084F185E02D8B
:100C70000995892BE1F6D80116968D919C911797CD
:100C8000019617969C938E931697CE01DF91CF9184
:100C90001F910F910895FA01AA27283051F12031B0
:100CA00081F1E8946F936E7F6E5F7F4F8F4F9F4F00
:100CB000AF4FB1E03ED0B4E03CD0670F781F891F42
:100CC0009A1FA11D680F791F8A1F911DA11D6A0F10
:100CD000711D811D911DA11D20D009F468943F91C3
:100CE0002AE0269F11243019305D3193DEF6CF01C2
:100CF0000895462F4770405D4193B3E00FD0C9F788
:100D0000F6CF462F4F70405D4A3318F0495D31FDF4
:100D10004052419302D0A9F7EACFB4E0A695979547
:100D2000879577956795BA95C9F70097610571051D
:100D300008959B01AC010A2E069457954795379567
:100D40002795BA95C9F7620F731F841F951FA01DC1
:100D50000895052E97FB16F400940FD057FD05D08B
:100D600024D007FC02D046F408C050954095309539
:100D700021953F4F4F4F5F4F089590958095709507
:100D800061957F4F8F4F9F4F089531D0A59F900D54
:100D9000B49F900DA49F800D911D11240895B7FF5D
:100DA000F4CFF3DF821B930B0895A1E21A2EAA1B46
:100DB000BB1BFD010DC0AA1FBB1FEE1FFF1FA2170B
:100DC000B307E407F50720F0A21BB30BE40BF50B08
:100DD000661F771F881F991F1A9469F76095709591
:100DE000809590959B01AC01BD01CF010895A29F14
:100DF000B001B39FC001A39F700D811D1124911DEF
:100E0000B29F700D811D1124911D0895F894FFCF9C
:100E10000100000001006E756D3A2025640D00721E
:100E2000616E3A2025640D0073636F72653A202568
:100E3000640D0A002D2D2D2D2D2D2D2D2D2D0D0A5E
:020E40000000B0
:00000001FF
